:100000000C945F000C9487000C9487000C9487007C
:100010000C9487000C9487000C9487000C94870044
:100020000C9487000C9487000C9487000C94DB01DF
:100030000C9487000C9487000C9487000C94870024
:100040000C94E8050C9487000C94B3080C94E50814
:100050000C9487000C9487000C9487000C94870004
:100060000C9487000C948700000000080002010037
:100070000003040700000000000000000102040863
:100080001020408001020408102001020408102002
:10009000040404040404040402020202020203032E
:1000A0000303030300000000250028002B000000CC
:1000B0000000240027002A00D301C70515091124D8
:1000C0001FBECFEFD8E0DEBFCDBF11E0A0E0B1E0B2
:1000D000EAE1F7E102C005900D92A03AB107D9F725
:1000E00022E0A0EAB1E001C01D92A23CB207E1F714
:1000F00010E0CEEBD0E004C02297FE010E94130B6B
:10010000C83BD107C9F70E9459090C948B0B0C947A
:10011000000040ED57E060E070E084ED91E00E9467
:10012000150520E032EC41E050E065E272E084ED3C
:1001300091E00E942B0561E084ED91E00E94EB04C8
:10014000882391F064E071E080911602909117028B
:100150000E94A6096AE070E080E090E00E946106DB
:1001600084ED91E00E94140541E060E084ED91E0AF
:100170000E94A90561E08BE00E94FF066AE070E042
:1001800083EA91E00E94310369E070E080EA91E047
:100190000E94310364E170E083EA91E00E946A0307
:1001A00061E070E080EA91E00C946A03AF92BF9244
:1001B000CF92DF92EF92FF920F931F93CF93DF9333
:1001C0005C018B0122E330E040E050E06EE170E042
:1001D00080E090E00E94450A6B01C5010E94EC039B
:1001E000EC01EE24D7FCE094FE2C801791076CF410
:1001F000BE01C5010E946A03C701B6010E946106E3
:100200002196C017D107A1F70DC0C017D10751F033
:10021000BE01C5010E946A03C701B6010E946106C2
:100220002197F3CFDF91CF911F910F91FF90EF9026
:10023000DF90CF90BF90AF9008952CE330E040E086
:1002400050E06EE170E080E090E00E94450A83EAB1
:1002500091E00E94D60026E430E040E050E061E00A
:1002600070E080E090E00E94450A80EA91E00C9402
:10027000D600CF92DF92EF92FF920F931F930E94CE
:100280003206672B682B692B39F40E9432066230E4
:10029000710581059105B0F184ED91E00E94520451
:1002A0006093A6017093A7018093A8019093A90180
:1002B0000091AA011091AB012091AC013091AD01E8
:1002C000601771078207930740F46093AA01709347
:1002D000AB018093AC019093AD010091AA01109104
:1002E000AB012091AC013091AD016B017C01C01AD2
:1002F000D10AE20AF30A970186010A3F1105210596
:10030000310570F40E941D0168EE73E080E090E01A
:100310001F910F91FF90EF90DF90CF900C946106AA
:100320006093AA017093AB018093AC019093AD01EF
:1003300044EF51E060E070E084ED91E00E945404ED
:1003400061E084ED91E00E94EB04882309F161E013
:1003500084ED91E00E94700466E171E080911602E4
:10036000909117020E94A6090E943206AB01BC01BF
:100370002AE030E080911602909117020E940D0A47
:1003800084ED91E00E94D60484ED91E00E94140572
:1003900065E070E080E090E00E94610684ED91E00D
:1003A0000E94DF04AFCF83EA91E00E94970280EAC7
:1003B00091E00C9497021F920F920FB60F921124A6
:1003C0002F933F934F935F936F937F938F939F935D
:1003D000AF93BF93EF93FF938091AF0187FF05C069
:1003E00010928500109284001AC02091AF0133272B
:1003F00027FD30958091AE0190E0281739077CF4F5
:100400008091AF01992787FD9095FC01EE0FFF1FAA
:10041000E80FF91FE055FE4F808186FD15C08091E1
:10042000AF018F5F8093AF012091AF01332727FD8C
:1004300030958091AE0190E028173907BCF4809187
:10044000AF018C305CF112C08091AF01992787FD1C
:100450009095FC01EE0FFF1FE80FF91FE055FE4FCE
:10046000808160E08F730E943807D9CF809184002B
:1004700090918500049680349C4918F480E49CE9AE
:1004800005C0809184009091850004969093890026
:10049000809388008FEF8093AF0138C02091840053
:1004A000309185008091AF01992787FD9095FC01DF
:1004B000EE0FFF1FE80FF91FE055FE4F818192817B
:1004C000820F931F90938900809388008091AF01E1
:1004D000992787FD9095FC01EE0FFF1FE80FF91F8C
:1004E000E055FE4F808186FF11C08091AF019927B2
:1004F00087FD9095FC01EE0FFF1FE80FF91FE055F7
:10050000FE4F808161E08F730E943807FF91EF9169
:10051000BF91AF919F918F917F916F915F914F911B
:100520003F912F910F900FBE0F901F901895209123
:10053000AE012C30A0F431E0320F3093AE01FC015B
:100540002083822F90E0FC01EE0FFF1FE80FF91FC0
:10055000E055FE4F88EB9BE09283818308952FEF57
:10056000FC0120830895DF92EF92FF920F931F9377
:10057000CF93DF93EC01D62E7A01890188818C30EC
:1005800008F066C061E08D2D0E94FF068881A82FCB
:10059000B0E0FD01EE0FFF1FEA0FFB1FE055FE4F1D
:1005A0002D2D2F739081907C922B908360E272E0CE
:1005B0006E197F0977FF02C06D5F7F4F7595679554
:1005C00075956795698340E659E0401B510B57FFCD
:1005D00002C04D5F5F4F55954795559547954A83A6
:1005E0006CE00E94B90A9CE0899FB001112420E0D0
:1005F00030E0A901460F571FFA01EE0FFF1FE40F6D
:10060000F51FE055FE4F908196FD16C02F5F3F4FBE
:100610002C30310571F781110FC01092800082E0FB
:10062000809381001092850010928400B19A80918D
:100630006F00826080936F00888190E0FC01EE0F74
:10064000FF1FE80FF91FE055FE4F80818064808313
:100650008881DF91CF911F910F91FF90EF90DF90F4
:10066000089520E639E040E252E00C94B302FC0128
:1006700080818C3070F5918128E830E0291B3109A8
:1006800097FD3395220F331F220F331F6217730715
:100690007CF0928128E532E0291B310997FD3395E2
:1006A000220F331F220F331F621773070CF49B01B5
:1006B00022503109220F331F4FB7F89490E0FC010C
:1006C000EE0FFF1FE80FF91FE055FE4F3283218325
:1006D0004FBF08954F925F926F927F92AF92BF92F9
:1006E000CF92DF92EF92FF920F931F93CF93DF93FE
:1006F000EC01603282E078070CF040C077FD06C064
:10070000653B71052CF064EB70E002C060E070E0C6
:10071000898128E830E0281B310987FD3395220FB5
:10072000331F220F331F5901CC24B7FCC094DC2C9B
:10073000882777FD8095982F2A8148E552E0421B53
:10074000510927FD5395440F551F440F551F2A018A
:10075000662457FC6094762C7F926F925F924F9242
:1007600014EBE12EF12C00E010E020E030E0A901D4
:100770000E94610A0F900F900F900F90CE01DF91B1
:10078000CF911F910F91FF90EF90DF90CF90BF908E
:10079000AF907F906F905F904F900C943703FC0167
:1007A00080818F3FB1F090E0FC01EE0FFF1FE80F5A
:1007B000F91FE055FE4F8181928143E0880F991F18
:1007C0004A95E1F754E0969587955A95E1F7029698
:1007D000089580E090E008954F925F926F927F922B
:1007E000AF92BF92CF92DF92EF92FF920F931F933F
:1007F000CF93DF9300D000D0CDB7DEB7FC012281CC
:1008000048E552E0421B510927FD5395440F551FFF
:10081000440F551F2A01662457FC6094762C4181B1
:1008200028E830E0241B310947FD3395220F331FA0
:10083000220F331F442737FD4095542F29833A83D5
:100840004B835C830E94CF030196BC01882777FD10
:100850008095982F1F921F921F92E4EBEF93A12C8B
:10086000B12C65018301720129813A814B815C8140
:100870000E94610A0F900F900F900F90CB010F9084
:100880000F900F900F90DF91CF911F910F91FF90DC
:10089000EF90DF90CF90BF90AF907F906F905F9080
:1008A0004F9008950C943206CF93DF93EC014E875E
:1008B0005F87688B798B1A8A1B8A1C8A1D8A4E81F6
:1008C0005F81688579854A875B876C877D870E9411
:1008D00032066E837F8388879987DF91CF91089551
:1008E000BF92CF92DF92EF92FF920F931F93CF931D
:1008F000DF938C01B62E0E9432066B017C01E80169
:10090000CE5BDF4F68E171E0888199810E94A60982
:100910004AE050E06B2D888199810E941A0A6FE1AC
:1009200071E0888199810E94A6092AE030E0B70130
:10093000A601888199810E940D0A61E271E0888197
:1009400099810E94A609F80186819781A085B185C9
:10095000B701A601481B590B6A0B7B0B2AE030E05C
:10096000888199810E940D0A61E271E088819981F4
:100970000E94A609F80146815781608571858285AC
:100980009385A485B585481B590B6A0B7B0B2AE020
:1009900030E088819981DF91CF911F910F91FF9075
:1009A000EF90DF90CF90BF900C940D0A8E5B9F4F1D
:1009B00063E271E0FC01808191810C94AC09CF93DA
:1009C000DF93EC010E9432066E837F8388879987CC
:1009D000DF91CF9108950F931F93CF93DF93EC0195
:1009E000611116C00E9432060A811B812C813D8153
:1009F000601B710B820B930B6233710581059105AE
:100A000038F463E070E080E090E00E946106EACF95
:100A10000E9432066A837B838C839D8381E0DF9111
:100A2000CF911F910F9108950895FC01EC5BFF4F4A
:100A30001082118212821382FC01128213821482AC
:100A40001582411551056105710521F0CB01BA01EF
:100A50000C9461060895FB01BA01A9018E5B9F4FBA
:100A6000DC01ED93FC9326E0CF010C9451088E5BE2
:100A70009F4FDC018D919C91DC01ED91FC910680F2
:100A8000F781E02D099508958E5B9F4FDC018D91D4
:100A90009C91DC01ED91FC910480F581E02D09959C
:100AA00008951F93CF93DF93EC01162F0E94320617
:100AB0006A837B838C839D83CE5BDF4F6AE271E028
:100AC000888199810E94A6094AE050E0612F8881BF
:100AD00099810E941A0A61E371E0888199810E94DC
:100AE000A60962E370E080E090E0DF91CF911F9172
:100AF0000C9461061F93CF93DF93EC01162F8E8920
:100B0000882311F1CE010E944405811102C085E6BF
:100B10001CC0CE010E9444058823C9F3CE010E9467
:100B20003705883689F048F4883569F0833689F7C7
:100B3000612FCE010E94510507C0813729F0863709
:100B400041F786E702C01E8A83E6DF91CF911F91AD
:100B500008950F931F93CF93DF931F92CDB7DEB706
:100B60008C01611108C0F801468B0F90DF91CF9185
:100B70001F910F91089581E0F801868B60E0C80114
:100B800049830E947A0549818336C1F7ECCF1092E0
:100B9000DA011092DB011092DC011092DD0110925B
:100BA000DE011092DF011092E0011092E10110923B
:100BB000E2011092E3011092E4011092E50110921B
:100BC000E6011092E7011092E8011092E901089500
:100BD0001F920F920FB60F9211242F933F938F9372
:100BE0009F93AF93BF9380911D0290911E02A0919D
:100BF0001F02B091200230911C0223E0230F2D37F9
:100C000020F40196A11DB11D05C026E8230F029610
:100C1000A11DB11D20931C0280931D0290931E0202
:100C2000A0931F02B0932002809121029091220292
:100C3000A0912302B09124020196A11DB11D8093C1
:100C4000210290932202A0932302B0932402BF9129
:100C5000AF919F918F913F912F910F900FBE0F9069
:100C60001F9018952FB7F89460911D0270911E0285
:100C700080911F02909120022FBF08953FB7F894F2
:100C80008091210290912202A0912302B09124022E
:100C900026B5A89B05C02F3F19F00196A11DB11DD7
:100CA0003FBF6627782F892F9A2F620F711D811DF4
:100CB000911D42E0660F771F881F991F4A95D1F753
:100CC00008958F929F92AF92BF92CF92DF92EF9250
:100CD000FF926B017C010E943E064B015C01C11436
:100CE000D104E104F104F1F00E94A80A0E943E063A
:100CF000681979098A099B09683E73408105910545
:100D000070F321E0C21AD108E108F10888EE880EDC
:100D100083E0981EA11CB11CC114D104E104F104AC
:100D200029F7DDCFFF90EF90DF90CF90BF90AF908D
:100D30009F908F900895789484B5826084BD84B527
:100D4000816084BD85B5826085BD85B5816085BDC6
:100D5000EEE6F0E0808181608083E1E8F0E01082DF
:100D6000808182608083808181608083E0E8F0E020
:100D7000808181608083E1EBF0E08081846080830A
:100D8000E0EBF0E0808181608083EAE7F0E0808141
:100D900084608083808182608083808181608083A1
:100DA0008081806880831092C1000895833081F033
:100DB00028F4813099F08230A1F008958730A9F0AD
:100DC0008830B9F08430D1F4809180008F7D03C0E9
:100DD000809180008F7780938000089584B58F770D
:100DE00002C084B58F7D84BD08958091B0008F7757
:100DF00003C08091B0008F7D8093B0000895CF93A1
:100E0000DF9390E0FC01E458FF4F2491FC01E05790
:100E1000FF4F8491882349F190E0880F991FFC01CE
:100E2000E255FF4FA591B4918C559F4FFC01C591A0
:100E3000D4919FB7611108C0F8948C9120958223BA
:100E40008C93888182230AC0623051F4F8948C918B
:100E5000322F309583238C938881822B888304C022
:100E6000F8948C91822B8C939FBFDF91CF91089542
:100E70000F931F93CF93DF931F92CDB7DEB7282F29
:100E800030E0F901E859FF4F8491F901E458FF4F30
:100E90001491F901E057FF4F04910023C9F0882312
:100EA00021F069830E94D6066981E02FF0E0EE0F01
:100EB000FF1FEC55FF4FA591B4919FB7F8948C910B
:100EC000611103C01095812301C0812B8C939FBFBA
:100ED0000F90DF91CF911F910F910895FC01818DAB
:100EE000228D90E0805C9F4F821B91098F73992720
:100EF0000895FC01918D828D981731F0828DE80F55
:100F0000F11D858D90E008958FEF9FEF0895FC010E
:100F1000918D828D981761F0828DDF01A80FB11D30
:100F20005D968C91928D9F5F9F73928F90E0089554
:100F30008FEF9FEF08958BE099E0892B49F080E0D7
:100F400090E0892B29F00E940B0981110C9400007C
:100F50000895FC01848DDF01A80FB11DA35ABF4F76
:100F60002C91848D90E001968F739927848FA689A8
:100F7000B7892C93A089B1898C9180648C93938DCF
:100F8000848D981306C00288F389E02D80818F7DBF
:100F900080830895CF93DF93EC01888D8823C9F077
:100FA000EA89FB89808185FD05C0A889B9898C9172
:100FB00086FD0FC00FB607FCF5CF808185FFF2CF0D
:100FC000A889B9898C9185FFEDCFCE010E94A90730
:100FD000E7CFDF91CF910895CF92DF92FF920F93E9
:100FE0001F93CF93DF931F92CDB7DEB76C0181E0E3
:100FF000D60158968C9358975B969C915B975C961C
:101000008C915C97981307C05096ED91FC91519785
:10101000808185FD2EC0F601038D10E00F5F1F4F0C
:101020000F731127F02EF601848DF81211C00FB640
:1010300007FCF9CFD6015096ED91FC915197808134
:1010400085FFF1CFC60169830E94A9076981EBCFB3
:10105000838DE80FF11DE35AFF4F6083D6015B9645
:101060000C935B975296ED91FC915397808180622F
:101070000CC0D6015696ED91FC915797608350961F
:10108000ED91FC91519780818064808381E090E0B4
:101090000F90DF91CF911F910F91FF90DF90CF9034
:1010A0000895BF92CF92DF92EF92FF92CF93DF939A
:1010B000EC016A017B01B22EE889F98982E0808324
:1010C000411581EE580761057105A1F060E079E0F6
:1010D0008DE390E0A70196010E94C50A21503109D5
:1010E000410951095695479537952795211580E176
:1010F000380798F0E889F989108260E874E88EE191
:1011000090E0A70196010E94C50A215031094109CA
:1011100051095695479537952795EC85FD85308380
:10112000EE85FF852083188EEC89FD89B082EA89DF
:10113000FB89808180618083EA89FB898081886066
:101140008083EA89FB89808180688083EA89FB89C2
:1011500080818F7D8083DF91CF91FF90EF90DF9032
:10116000CF90BF9008951F920F920FB60F92112447
:101170002F938F939F93EF93FF93E0913502F0911C
:1011800036028081E0913B02F0913C0282FD12C068
:10119000908180913E028F5F8F7320913F02821772
:1011A00051F0E0913E02F0E0EB5DFD4F958F8093B2
:1011B0003E0201C08081FF91EF919F918F912F910D
:1011C0000F900FBE0F901F9018951F920F920FB6A1
:1011D0000F9211242F933F934F935F936F937F93BD
:1011E0008F939F93AF93BF93EF93FF9385E292E02A
:1011F0000E94A907FF91EF91BF91AF919F918F91AD
:101200007F916F915F914F913F912F910F900FBE02
:101210000F901F90189585E292E00E946E0721E0E2
:10122000892B09F420E0822F089510922802109251
:10123000270288EE93E0A0E0B0E08093290290932B
:101240002A02A0932B02B0932C0286E891E090939F
:1012500026028093250285EC90E0909332028093E1
:10126000310284EC90E0909334028093330280EC5E
:1012700090E0909336028093350281EC90E0909359
:1012800038028093370282EC90E090933A02809388
:10129000390286EC90E090933C0280933B021092DE
:1012A0003E0210923F0210924002109241020895B5
:1012B00008950E949B060E9458090E948900CBE96C
:1012C000D7E00E9439012097E1F30E949B07F9CFF4
:1012D000CF92DF92EF92FF920F931F93CF93DF9302
:1012E0007C016A01EB0100E010E00C151D0571F0B6
:1012F0006991D701ED91FC910190F081E02DC7013A
:101300000995892B19F00F5F1F4FEFCFC801DF91AF
:10131000CF911F910F91FF90EF90DF90CF900895A4
:101320006115710581F0DB010D900020E9F7AD0139
:1013300041505109461B570BDC01ED91FC91028095
:10134000F381E02D099480E090E008950C949009D9
:1013500067E371E00C9490090F931F93CF93DF9391
:10136000EC010E9490098C01CE010E94A809800F17
:10137000911FDF91CF911F910F9108958F929F92AE
:10138000AF92BF92DF92EF92FF920F931F93CF9392
:10139000DF93CDB7DEB7A1970FB6F894DEBF0FBECF
:1013A000CDBF7C01F42FD52ECB0119A2223008F439
:1013B0002AE08E010F5D1F4F822E912CA12CB12CA3
:1013C0006F2F7D2DA50194010E94C50AF22FD32E07
:1013D000CA01015011096A3014F4E0E301C0E7E3E7
:1013E000E60FD801EC93232B242B252B49F7B801CA
:1013F000C7010E949009A1960FB6F894DEBF0FBEF8
:10140000CDBFDF91CF911F910F91FF90EF90DF90B3
:10141000BF90AF909F908F9008952115310541F4B2
:10142000DC01ED91FC910190F081E02D642F099495
:101430000C94BE099A01462F50E060E070E00C94D5
:101440000D0ACF93DF9300D000D0CDB7DEB79B015C
:10145000AC01611571058105910569F069833A83D5
:101460004B835C830E94750B29813A814B815C819F
:101470000E94E70A03C060E070E0CB010F900F907C
:101480000F900F90DF91CF910895CF92DF92EF925E
:10149000FF926B017C01621773078407950764F460
:1014A000CA01B9016C197D098E099F090E94210AA0
:1014B0006C0D7D1D8E1D9F1DFF90EF90DF90CF90D6
:1014C00008954F925F926F927F92AF92BF92CF92A8
:1014D000DF92EF92FF920F931F93CF93DF93CDB7DD
:1014E000DEB729013A01621B730B840B950B298926
:1014F0003A894B895C892A193B094C095D09298B7A
:101500003A8B4B8B5C8B9B01AC0169897A898B8907
:101510009C890E94A90AE418F50806091709A80180
:1015200097010E94E70A2A0D3B1D4C1D5D1DCA0153
:10153000B901DF91CF911F910F91FF90EF90DF9054
:10154000CF90BF90AF907F906F905F904F90089535
:101550000895DB018F939F930E94060BBF91AF917B
:10156000A29F800D911DA39F900DB29F900D1124FD
:101570000895991B79E004C0991F961708F0961BEF
:10158000881F7A95C9F780950895A1E21A2EAA1BA3
:10159000BB1BFD010DC0AA1FBB1FEE1FFF1FA21723
:1015A000B307E407F50720F0A21BB30BE40BF50B20
:1015B000661F771F881F991F1A9469F760957095A9
:1015C000809590959B01AC01BD01CF010895052E3A
:1015D00097FB1EF400940E94FE0A57FD07D00E945C
:1015E000C50A07FC03D04EF40C94FE0A50954095B2
:1015F000309521953F4F4F4F5F4F089590958095BF
:10160000709561957F4F8F4F9F4F08950E94170BE4
:10161000A59F900DB49F900DA49F800D911D112446
:101620000895EE0FFF1F0590F491E02D0994A29FFD
:10163000B001B39FC001A39F700D811D1124911DA6
:10164000B29F700D811D1124911D08958F929F925C
:10165000AF92BF92CF92DF92EF92FF92CF93DF9340
:10166000EC01688179818A819B8161157105810511
:10167000910521F464E279ED8BE597E02DE133EFFC
:1016800041E050E00E94E70A49015A019B01AC0188
:10169000A7EAB1E40E94060B6B017C01ACEEB4EF4B
:1016A000A50194010E94860BC60ED71EE81EF91EE6
:1016B000F7FE06C081E0C81AD108E10880E8F80A00
:1016C000C882D982EA82FB82C701B6019F77DF9187
:1016D000CF91FF90EF90DF90CF90BF90AF909F9011
:1016E0008F9008950E94260B089580E091E00E945B
:1016F000260B08956093000170930101809302010D
:10170000909303010895B7FF0C94060B0E94060BFB
:0A171000821B930B0895F894FFCF9D
:10171A0001000000564D4450565F317C315F564DF2
:10172A004450560D0A007C00564D4450455F003A1D
:10173A00323A005F564D44504500564D4450435F7F
:10174A00005F564D4450430D0A004572726F723A5B
:10175A0020417474656D707420746F2073657420F1
:10176A006120726561642D6F6E6C79207661726991
:10177A0061626C65206F7220646174612074797093
:10178A0065206E6F7420737570706F727465640D66
:10179A000A0000000000EC0768096E07870779074E
:1017AA00CA076E616E00696E66006F7666002E006B
:00000001FF
