:100000003BC05FC05EC05DC05CC05BC0D7C059C0B4
:1000100058C032C356C055C054C053C052C051C05E
:1000200050C04FC04EC000000000000000000003A0
:100030000406000000000000000001020408102077
:10004000408001020408102001020408102004046A
:100050000404040404040202020202020303030370
:1000600003030000000038003500320000000000EB
:10007000370034003100D80011241FBECFE5D4E092
:10008000DEBFCDBF20E0A4E6B0E001C01D92A939DB
:10009000B207E1F710E0A0E6B0E0E6ECFBE002C05A
:1000A00005900D92A436B107D9F710E0C8E7D0E06B
:1000B00003C02297FE0117D5C637D107D1F721D447
:1000C00080C59ECF61E08BE0ADD36BE070E087E64A
:1000D00090E0B6D166E070E084E690E0B1D16AE5E8
:1000E00070E087E690E0E4D165E570E084E690E0BA
:1000F000DFC1AF92BF92CF92DF92EF92FF920F9348
:100100001F93CF93DF935C018B0122E330E040E04B
:1001100050E06EE170E080E090E01FD46B01C5011B
:1001200047D2EC01EE24D7FCE094FE2C8017910717
:100130005CF4BE01C501BCD1C701B6010BD3219649
:10014000C017D107B1F70BC0C017D10741F0BE01EE
:10015000C501AED1C701B601FDD22197F5CFDF9120
:10016000CF911F910F91FF90EF90DF90CF90BF90B4
:10017000AF9008952EE630E040E050E068E270E095
:1001800080E090E0EAD387E690E0B3DF25E530E059
:1001900040E050E062E370E080E090E0DED384E68F
:1001A00090E0A7DF64EF71E080E090E0D3C2E2CF9F
:1001B00087E690E0B1D084E690E0AEC01F920F9247
:1001C0000FB60F9211242F933F934F935F936F932A
:1001D0007F938F939F93AF93BF93EF93FF93809100
:1001E0006B0087FF03C01DBC1CBC1AC020916B00B4
:1001F000332727FD309580916A0090E02817390752
:100200007CF480916B00992787FD9095FC01EE0F9F
:10021000FF1FE80FF91FE459FF4F808186FD15C0CD
:1002200080916B008F5F80936B0020916B00332770
:1002300027FD309580916A0090E028173907B4F4C3
:1002400080916B008C3024F111C080916B00992754
:1002500087FD9095FC01EE0FFF1FE80FF91FE45991
:10026000FF4F808160E08F7316D3DACF8CB59DB5D8
:10027000049680349C4918F480E49CE903C08CB552
:100280009DB504969BBD8ABD8FEF80936B0033C0F4
:100290002CB53DB580916B00992787FD9095FC01A9
:1002A000EE0FFF1FE80FF91FE459FF4F8181928184
:1002B000820F931F9BBD8ABD80916B00992787FD9C
:1002C0009095FC01EE0FFF1FE80FF91FE459FF4F57
:1002D000808186FF10C080916B00992787FD9095E3
:1002E000FC01EE0FFF1FE80FF91FE459FF4F80815B
:1002F00061E08F73D0D2FF91EF91BF91AF919F9149
:100300008F917F916F915F914F913F912F910F90BE
:100310000FBE0F901F90189520916A002C30A0F40A
:1003200031E0320F30936A00FC012083822F90E08D
:10033000FC01EE0FFF1FE80FF91FE459FF4F88EB98
:100340009BE09283818308952FEFFC012083089521
:10035000DF92EF92FF920F931F93CF93DF93EC0105
:10036000D62E7A01890188818C3008F060C061E066
:100370008D2D58D28881A82FB0E0FD01EE0FFF1F10
:10038000EA0FFB1FE459FF4F2D2D2F739081907CB6
:10039000922B908360E272E06E197F0977FF02C0B2
:1003A0006D5F7F4F7595679575956795698340E695
:1003B00059E0401B510B57FF02C04D5F5F4F5595F1
:1003C0004795559547954A836CE037D39CE0899FC4
:1003D000B001112420E030E0A901460F571FFA01B7
:1003E000EE0FFF1FE40FF51FE459FF4F908196FDBC
:1003F00012C02F5F3F4F2C30310571F781110BC0B8
:100400001FBC82E08EBD1DBC1CBC88B7806188BF4C
:1004100089B7806189BF888190E0FC01EE0FFF1FE2
:10042000E80FF91FE459FF4F808180648083888141
:10043000DF91CF911F910F91FF90EF90DF90089582
:1004400020E639E040E252E083CFFC0180818C302D
:1004500070F5918128E830E0291B310997FD33952B
:10046000220F331F220F331F621773077CF0928114
:1004700028E532E0291B310997FD3395220F331F00
:10048000220F331F621773070CF49B0122503109AE
:10049000220F331F4FB7F89490E0FC01EE0FFF1FBF
:1004A000E80FF91FE459FF4F328321834FBF0895AE
:1004B0004F925F926F927F92AF92BF92CF92DF92F4
:1004C000EF92FF920F931F93CF93DF93EC01603273
:1004D00082E078070CF03FC077FD06C0653B7105F0
:1004E0002CF064EB70E002C060E070E0898128E8E5
:1004F00030E0281B310987FD3395220F331F220F6F
:10050000331F5901CC24B7FCC094DC2C882777FD1D
:100510008095982F2A8148E552E0421B510927FD1A
:100520005395440F551F440F551F2A01662457FC4D
:100530006094762C7F926F925F924F9214EBE12E33
:10054000F12C00E010E020E030E0A90121D20F9072
:100550000F900F900F90CE01DF91CF911F910F91CF
:10056000FF90EF90DF90CF90BF90AF907F906F9013
:100570005F904F906ACFFC0180818F3FB1F090E097
:10058000FC01EE0FFF1FE80FF91FE459FF4F8181B7
:10059000928143E0880F991F4A95E1F754E09695C0
:1005A00087955A95E1F70296089580E090E00895C6
:1005B0004F925F926F927F92AF92BF92CF92DF92F3
:1005C000EF92FF920F931F93CF93DF9300D000D051
:1005D000CDB7DEB7FC01228148E552E0421B51094C
:1005E00027FD5395440F551F440F551F2A016624BC
:1005F00057FC6094762C418128E830E0241B3109B7
:1006000047FD3395220F331F220F331F442737FD39
:100610004095542F29833A834B835C83ACDF01964A
:10062000BC01882777FD8095982F1F921F921F92FB
:10063000E4EBEF93A12CB12C6501830172012981B8
:100640003A814B815C81A4D10F900F900F900F9055
:10065000CB010F900F900F900F90DF91CF911F91D2
:100660000F91FF90EF90DF90CF90BF90AF907F9071
:100670006F905F904F9008951F920F920FB60F9258
:1006800011242F933F938F939F93AF93BF938091A8
:10069000910090919200A0919300B09194003091BC
:1006A000900023E0230F2D3720F40196A11DB11DEA
:1006B00005C026E8230F0296A11DB11D20939000CE
:1006C0008093910090939200A0939300B093940034
:1006D0008091950090919600A0919700B09198001C
:1006E0000196A11DB11D8093950090939600A09353
:1006F0009700B0939800BF91AF919F918F913F91D8
:100700002F910F900FBE0F901F9018953FB7F89440
:100710008091950090919600A0919700B0919800DB
:1007200022B708B600FE05C02F3F19F00196A11DA3
:10073000B11D3FBF6627782F892F9A2F620F711D39
:10074000811D911D42E0660F771F881F991F4A95F2
:10075000D1F708958F929F92AF92BF92CF92DF927E
:10076000EF92FF926B017C01D1DF4B015C01C11460
:10077000D104E104F104E1F050D1C8DF681979092E
:100780008A099B09683E73408105910580F321E049
:10079000C21AD108E108F10888EE880E83E0981E9D
:1007A000A11CB11CC114D104E104F10431F7DFCF65
:1007B000FF90EF90DF90CF90BF90AF909F908F9081
:1007C0000895789483B7826083BF83B7816083BFC5
:1007D00089B7816089BF1EBC8EB582608EBD8EB523
:1007E00081608EBD8FB581608FBD85B5846085BD0C
:1007F00085B5806485BD329A319A309A379A1AB895
:100800000895843039F0863049F0833051F48FB543
:100810008F7702C08FB58F7D8FBD089585B58F7D91
:1008200085BD0895CF93DF9390E0FC01E65CFF4F18
:100830002491FC01E25BFF4F8491882349F190E011
:10084000880F991FFC01E459FF4FA591B4918E596F
:100850009F4FFC01C591D4919FB7611108C0F894D6
:100860008C91209582238C93888182230AC06230E8
:1008700051F4F8948C91322F309583238C93888196
:10088000822B888304C0F8948C91822B8C939FBF19
:10089000DF91CF9108950F931F93CF93DF931F9212
:1008A000CDB7DEB7282F30E0F901EA5DFF4F849124
:1008B000F901E65CFF4F1491F901E25BFF4F0491EF
:1008C0000023C1F0882319F069839BDF6981E02F41
:1008D000F0E0EE0FFF1FEE59FF4FA591B4919FB7C7
:1008E000F8948C91611103C01095812301C0812B74
:1008F0008C939FBF0F90DF91CF911F910F9108951F
:1009000008955FDFFDDFDEDBC0E0D0E050DC209744
:10091000E9F376DBFBCFCF93DF9300D000D0CDB7E8
:10092000DEB79B01AC01611571058105910559F098
:1009300069833A834B835C8331D129813A814B812E
:100940005C8187D003C060E070E0CB010F900F9016
:100950000F900F90DF91CF910895CF92DF92EF9299
:10096000FF926B017C0162177307840795075CF4A3
:10097000CA01B9016C197D098E099F09CCDF6C0D84
:100980007D1D8E1D9F1DFF90EF90DF90CF900895ED
:100990004F925F926F927F92AF92BF92CF92DF920F
:1009A000EF92FF920F931F93CF93DF93CDB7DEB7F4
:1009B00029013A01621B730B840B950B29893A8933
:1009C0004B895C892A193B094C095D09298B3A8BB3
:1009D0004B8B5C8B9B01AC0169897A898B899C89E3
:1009E0001DD0E418F50806091709A801970131D0B0
:1009F0002A0D3B1D4C1D5D1DCA01B901DF91CF9130
:100A00001F910F91FF90EF90DF90CF90BF90AF902C
:100A10007F906F905F904F9008950895DB018F93C2
:100A20009F9333D0BF91AF91A29F800D911DA39F43
:100A3000900DB29F900D11240895991B79E004C088
:100A4000991F961708F0961B881F7A95C9F780950D
:100A50000895052E97FB16F400940FD057FD05D08E
:100A60001ED007FC02D046F408C050954095309542
:100A700021953F4F4F4F5F4F08959095809570950A
:100A800061957F4F8F4F9F4F089531D0A59F900D57
:100A9000B49F900DA49F800D911D11240895A1E293
:100AA0001A2EAA1BBB1BFD010DC0AA1FBB1FEE1FE8
:100AB000FF1FA217B307E407F50720F0A21BB30B33
:100AC000E40BF50B661F771F881F991F1A9469F7AF
:100AD00060957095809590959B01AC01BD01CF010B
:100AE0000895EE0FFF1F0590F491E02D0994A29F49
:100AF000B001B39FC001A39F01D0B29F700D811DB3
:100B00001124911D08958F929F92AF92BF92CF9220
:100B1000DF92EF92FF92CF93DF93EC0168817981AE
:100B20008A819B81611571058105910521F464E23B
:100B300079ED8BE597E02DE133EF41E050E089DF7F
:100B400049015A019B01AC01A7EAB1E49EDF6B01A8
:100B50007C01ACEEB4EFA50194012FD0C60ED71ED8
:100B6000E81EF91EF7FE06C081E0C81AD108E108A8
:100B700080E8F80AC882D982EA82FB82C701B601FE
:100B80009F77DF91CF91FF90EF90DF90CF90BF9054
:100B9000AF909F908F900895B6DF089580E690E023
:100BA000B2DF0895609360007093610080936200EB
:100BB000909363000895B7FF68CF67DF821B930BA4
:060BC0000895F894FFCF38
:040BC600010000002A
:00000001FF
